:100000000C943E000C9486000C945B000C945B00F6
:100010000C945B000C945B000C945B000C945B00F4
:100020000C945B000C945B000C945B000C945B00E4
:100030000C945B000C945B000C945B000C945B00D4
:100040000C945B000C945B000C945B000C945B00C4
:100050000C94AC000C94DA000C945B000C945B00E4
:100060000C945B000C945B000C945B000C945B00A4
:100070000C9441010C946F010C945B0011241FBE81
:10008000CFEFD8E0DEBFCDBF11E0A0E0B1E0E6E306
:10009000F3E002C005900D92AE30B107D9F721E030
:1000A000AEE0B1E001C01D92AA39B207E1F70E94AB
:1000B0005D000C9499010C9400000E9470000E9455
:1000C000A8000E94770087E690E00E9404018AB1B0
:1000D00080688AB9789480E091E00E943401FFCF73
:1000E00087B1806F87B987B18F6087B9089581E044
:1000F0008AB98DB381608DBBE9E6F0E080818160D3
:10010000808383E080938100789408951F920F92FA
:100110000FB60F9211248F939F938BB180588BB998
:10012000499902C0489B05C0109285001092840036
:1001300008C08091840090918500909399018093EC
:1001400098019F918F910F900FBE0F901F9018955F
:100150008AB180648AB908951F920F920FB60F92E8
:1001600011242F938F939F93EF93FF938091C0005F
:100170002091C6008C71E0915501EF5FEF71909175
:100180005401E91739F0E0935501F0E0E85AFE4FC9
:10019000208301C082E090915301892B8093530109
:1001A000FF91EF919F918F912F910F900FBE0F9024
:1001B0001F9018951F920F920FB60F9211248F93D4
:1001C0009F93EF93FF939091570180915601981759
:1001D00069F0E0915601EF5FEF71E0935601F0E0B6
:1001E000E858FE4F80818093C60005C0E1ECF0E046
:1001F00080818F7D8083FF91EF919F918F910F90F0
:100200000FBE0F901F901895109257011092560133
:100210001092550110925401282F392F33231CF4CA
:1002200022E02093C00090789093C5008093C40092
:1002300088E98093C10086E08093C20008952091F0
:1002400057012F5F2F71909156012917E1F3E22F8B
:10025000F0E0E858FE4F808320935701E1ECF0E096
:100260008081806280830895CF93DF93EC0103C087
:1002700021960E941F0188818111FACFDF91CF91D1
:1002800008951F920F920FB60F9211242F938F9300
:100290009F93EF93FF938091C8002091CE008C71C3
:1002A000E0911001EF5FEF7190910F01E91739F0C4
:1002B000E0931001F0E0ED5EFE4F208301C082E08C
:1002C00090910E01892B80930E01FF91EF919F91E8
:1002D0008F912F910F900FBE0F901F9018951F9226
:1002E0000F920FB60F9211248F939F93EF93FF936A
:1002F0009091120180911101981769F0E09111011C
:10030000EF5FEF71E0931101F0E0ED5CFE4F808153
:100310008093CE0005C0E9ECF0E080818F7D808382
:10032000FF91EF919F918F910F900FBE0F901F90B3
:060330001895F894FFCFC0
:0E03360048656C6C6F20576F726C640A000093
:00000001FF
