:100000000C943E000C9448000C9448000C9448005A
:100010000C9448000C9448000C9448000C94480040
:100020000C9448000C9448000C9448000C94480030
:100030000C9448000C9448000C9448000C94480020
:100040000C9448000C9448000C9448000C94480010
:100050000C9448000C9448000C9448000C94480000
:100060000C9448000C9448000C9448000C944800F0
:100070000C9448000C9448000C94480011241FBEB6
:10008000CFEFD8E0DEBFCDBF0E944A000C945F00E6
:100090000C94000080E88AB980EF87B98BB1805852
:1000A0008BB998B180EF892788B92FEF80E792E06C
:1000B000215080409040E1F700C00000EFCFF8945D
:0200C000FFCF70
:00000001FF
