:100000000C943E000C9438020C945B000C945B0042
:100010000C945B000C945B000C945B000C945B00F4
:100020000C945B000C945B000C945B000C945B00E4
:100030000C945B000C945B000C945B000C945B00D4
:100040000C945B000C945B000C945B000C945B00C4
:100050000C9457020C9485020C945B000C945B008A
:100060000C945B000C945B000C945B000C945B00A4
:100070000C94AF020C94DD020C945B0011241FBEA3
:10008000CFEFD8E0DEBFCDBF11E0A0E0B1E0EAE500
:10009000F8E002C005900D92A030B107D9F721E039
:1000A000A0E0B1E001C01D92AC38B207E1F70E94B8
:1000B00075000C942B040C9400000E94B00061E0C9
:1000C00080E092E00E94E60161E080E092E00E9420
:1000D0000F020E94D0012FEF83ED90E3215080406A
:1000E0009040E1F700C00000EACF78942FEF81EE56
:1000F00094E0215080409040E1F700C000000E9451
:100100005D008F929F92AF92BF92CF92DF92EF925B
:10011000FF924B015C01C12CD12C760110C08FE9FC
:100120009FE00197F1F700C0000020E030E040E8D8
:100130005FE3C701B6010E9408036B017C01A501C2
:100140009401C701B6010E947403882344F3FF9011
:10015000EF90DF90CF90BF90AF909F908F900895D9
:1001600087B1806F87B987B18F6087B984B18F609D
:1001700084B908950F931F9381111AC088B18F70AD
:1001800088B988B190E8699FB001112490E4499F33
:10019000A001112490E2299F9001112490E1099F70
:1001A00080011124462B242B202B282B28B933C067
:1001B0008130C9F488B1807F88B988B150E0440F9C
:1001C000551F30E0220F331F220F331F10E0000FA6
:1001D000111F000F111F000F111F462B242B202B66
:1001E000282B28B918C08230B1F485B170E0660FB1
:1001F000771F660F771F660F771F50E0440F551F5C
:10020000440F551F30E0220F331F807F682B462B91
:10021000242B202B25B91F910F910895CF92DF92A7
:10022000EF92FF920F93CF93C82FF42E613009F015
:1002300057C000E020E040E00E94BA006F2D70E05F
:1002400080E090E00E9479036B017C010E948100B4
:1002500020E041E061E08C2F0E94BA00C701B601A6
:100260000E94810020E041E060E08C2F0E94BA00F3
:10027000C701B6010E94810021E041E060E08C2FBF
:100280000E94BA00C701B6010E94810021E040E04F
:1002900060E08C2F0E94BA00C701B6010E94810065
:1002A00001E021E040E060E08C2F0E94BA00C7012D
:1002B000B6010E94810020E040E060E08C2F0E94A7
:1002C000BA00C701B6010E94810020E040E061E071
:1002D0008C2F0E94BA00C701B6010E94810059C04C
:1002E000611157C001E020E040E00E94BA006F2D8C
:1002F00070E080E090E00E9479036B017C010E9435
:10030000810021E040E060E08C2F0E94BA00C7012C
:10031000B6010E94810000E021E040E060E08C2F07
:100320000E94BA00C701B6010E94810021E041E0AD
:1003300060E08C2F0E94BA00C701B6010E948100C4
:1003400020E041E060E08C2F0E94BA00C701B601B6
:100350000E94810020E041E061E08C2F0E94BA0001
:10036000C701B6010E94810020E040E061E08C2FCF
:100370000E94BA00C701B6010E94810001E020E09E
:1003800040E061E08C2F0E94BA00C701B6010E94D4
:100390008100CF910F91FF90EF90DF90CF90089563
:1003A0000F9300E020E040E060E080E00E94BA00AF
:1003B00020E040E060E081E00E94BA0020E040E000
:1003C00060E082E00E94BA000F910895EF92FF92E0
:1003D0001F93CF93DF937C01162F0E94D0012FEF44
:1003E00083EC99E0215080409040E1F700C000008C
:1003F000C0E0D0E00BC0412F61E081E00E940E011F
:10040000412F61E080E00E940E012196CE15DF05AC
:1004100090F3DF91CF911F91FF90EF900895EF92AD
:10042000FF921F93CF93DF937C01162F0E94D00180
:100430002FEF83EC99E0215080409040E1F700C01D
:100440000000C0E0D0E00BC0412F60E080E00E94DF
:100450000E01412F60E081E00E940E012196CE1531
:10046000DF0590F3DF91CF911F91FF90EF900895FA
:100470001F920F920FB60F9211248F939F934A9958
:1004800002C04A9B05C0109285001092840008C0EB
:10049000809184009091850090938B0180938A01D4
:1004A0009F918F910F900FBE0F901F9018951F92E4
:1004B0000F920FB60F9211242F938F939F93EF9368
:1004C000FF938091C0002091C6008C71E09147019C
:1004D000EF5FEF7190914601E91739F0E093470122
:1004E000F0E0E65BFE4F208301C082E09091450181
:1004F000892B80934501FF91EF919F918F912F91CF
:100500000F900FBE0F901F9018951F920F920FB66D
:100510000F9211248F939F93EF93FF939091490132
:1005200080914801981769F0E0914801EF5FEF7101
:10053000E0934801F0E0E659FE4F80818093C600C9
:1005400005C0E1ECF0E080818F7D8083FF91EF9129
:100550009F918F910F900FBE0F901F9018951F9233
:100560000F920FB60F9211242F938F939F93EF93B7
:10057000FF938091C8002091CE008C71E091020120
:10058000EF5FEF7190910101E91739F0E0930201FB
:10059000F0E0EB5FFE4F208301C082E0909100010C
:1005A000892B80930001FF91EF919F918F912F9163
:1005B0000F900FBE0F901F9018951F920F920FB6BD
:1005C0000F9211248F939F93EF93FF9390910401C7
:1005D00080910301981769F0E0910301EF5FEF71DB
:1005E000E0930301F0E0EB5DFE4F80818093CE004D
:1005F00005C0E9ECF0E080818F7D8083FF91EF9171
:100600009F918F910F900FBE0F901F90189550588B
:10061000BB27AA270E941F030C94F1030E94E30347
:1006200038F00E94EA0320F039F49F3F19F426F4D1
:100630000C94E0030EF4E095E7FB0C94DA03E92F49
:100640000E94020458F3BA176207730784079507DC
:1006500020F079F4A6F50C9424040EF4E0950B2E0A
:10066000BA2FA02D0B01B90190010C01CA01A00104
:100670001124FF27591B99F0593F50F4503E68F15F
:100680001A16F040A22F232F342F4427585FF3CFA0
:10069000469537952795A795F0405395C9F77EF471
:1006A0001F16BA0B620B730B840BBAF09150A1F0BA
:1006B000FF0FBB1F661F771F881FC2F70EC0BA0F40
:1006C000621F731F841F48F4879577956795B795C8
:1006D000F7959E3F08F0B0CF9395880F08F09927C3
:1006E000EE0F9795879508950E94B60308F481E070
:1006F0000895E89409C097FB3EF490958095709515
:1007000061957F4F8F4F9F4F9923A9F0F92F96E95D
:10071000BB279395F695879577956795B795F111D2
:10072000F8CFFAF4BB0F11F460FF1BC06F5F7F4F6F
:100730008F4F9F4F16C0882311F096E911C0772381
:1007400021F09EE8872F762F05C0662371F096E88A
:10075000862F70E060E02AF09A95660F771F881F59
:10076000DAF7880F9695879597F90895990F0008FD
:10077000550FAA0BE0E8FEEF16161706E807F90773
:10078000C0F012161306E407F50798F0621B730B0E
:10079000840B950B39F40A2661F0232B242B252B8F
:1007A00021F408950A2609F4A140A6958FEF811D32
:1007B000811D089597F99F6780E870E060E00895D3
:1007C0009FEF80EC089500240A9416161706180669
:1007D0000906089500240A94121613061406050645
:1007E0000895092E0394000C11F4882352F0BB0FD6
:1007F00040F4BF2B11F460FF04C06F5F7F4F8F4F39
:100800009F4F089557FD9058440F551F59F05F3F73
:1008100071F04795880F97FB991F61F09F3F79F022
:1008200087950895121613061406551FF2CF4695A4
:10083000F1DF08C0161617061806991FF1CF869526
:100840007105610508940895E894BB27662777270A
:0A085000CB0197F90895F894FFCF4B
:00000001FF
