:100000000C943E000C9461000C945B000C945B001B
:100010000C945B000C945B000C945B000C945B00F4
:100020000C945B000C945B000C945B000C945B00E4
:100030000C945B000C945B000C945B000C945B00D4
:100040000C945B000C945B000C945B000C945B00C4
:100050000C9480000C94AE000C945B000C945B003C
:100060000C945B000C945B000C945B000C945B00A4
:100070000C94D8000C9406010C945B0011241FBE54
:10008000CFEFD8E0DEBFCDBF11E0A0E0B1E0E4E605
:10009000F2E002C005900D92A030B107D9F721E03F
:1000A000A0E0B1E001C01D92AC38B207E1F70E94B8
:1000B0005D000C9430010C940000789480E090E096
:1000C00008951F920F920FB60F9211248F939F9352
:1000D0004A9902C04A9B05C0109285001092840084
:1000E00008C0809184009091850090938B0180934B
:1000F0008A019F918F910F900FBE0F901F901895BE
:100100001F920F920FB60F9211242F938F939F93EC
:10011000EF93FF938091C0002091C6008C71E09115
:100120004701EF5FEF7190914601E91739F0E093D5
:100130004701F0E0E65BFE4F208301C082E0909132
:100140004501892B80934501FF91EF919F918F91FC
:100150002F910F900FBE0F901F9018951F920F9226
:100160000FB60F9211248F939F93EF93FF9390916B
:10017000490180914801981769F0E0914801EF5FCB
:10018000EF71E0934801F0E0E659FE4F80818093E3
:10019000C60005C0E1ECF0E080818F7D8083FF9197
:1001A000EF919F918F910F900FBE0F901F90189518
:1001B0001F920F920FB60F9211242F938F939F933C
:1001C000EF93FF938091C8002091CE008C71E09155
:1001D0000201EF5FEF7190910101E91739F0E093AF
:1001E0000201F0E0EB5FFE4F208301C082E09091BE
:1001F0000001892B80930001FF91EF919F918F91D6
:100200002F910F900FBE0F901F9018951F920F9275
:100210000FB60F9211248F939F93EF93FF939091BA
:10022000040180910301981769F0E0910301EF5FE9
:10023000EF71E0930301F0E0EB5DFE4F808180936E
:10024000CE0005C0E9ECF0E080818F7D8083FF91D6
:10025000EF919F918F910F900FBE0F901F90189567
:04026000F894FFCF40
:00000001FF
