S01600006D657472323830302D726F626F742E7372656339
S11300000C943E000C94F5010C945B000C945B0082
S11300100C945B000C945B000C945B000C945B00F0
S11300200C945B000C945B000C945B000C945B00E0
S11300300C945B000C945B000C945B000C945B00D0
S11300400C945B000C945B000C945B000C945B00C0
S11300500C9414020C9442020C945B000C945B000C
S11300600C945B000C945B000C945B000C945B00A0
S11300700C946C020C949A020C945B0011241FBE25
S1130080CFEFD8E0DEBFCDBF11E0A0E0B1E0E4EDFA
S1130090F7E002C005900D92A030B107D9F721E036
S11300A0A0E0B1E001C01D92AC38B207E1F70E94B4
S11300B07C000C94E8030C9400000E94AE0061E004
S11300C086E990E00E94C3012FEF83ED90E3215075
S11300D080409040E1F700C0000061E086E990E0D4
S11300E00E94DC012FEF83ED90E32150804090408B
S11300F0E1F700C00000E3CF78940E945D008F9286
S11301009F92AF92BF92CF92DF92EF92FF924B01F8
S11301105C01C12CD12C760110C08FE99FE00197BE
S1130120F1F700C0000020E030E040E85FE3C701E1
S1130130B6010E94C5026B017C01A5019401C701AF
S1130140B6010E943103882344F3FF90EF90DF90BF
S1130150CF90BF90AF909F908F90089587B1806F9C
S113016087B987B18F6087B984B18F6084B90895E6
S11301700F931F93811118C088B190E8699FB00153
S1130180112490E4499FA001112490E2299F900139
S1130190112490E1099F800111248F70682B462B54
S11301A0242B202B28B932C08130C1F488B170E0EF
S11301B0660F771F660F771F660F771F50E0440F97
S11301C0551F440F551F30E0220F331F807F862BAD
S11301D0842B822B282F202B28B918C08230B1F40D
S11301E085B170E0660F771F660F771F660F771F64
S11301F050E0440F551F440F551F30E0220F331FAA
S1130200807F682B462B242B202B25B91F910F911F
S11302100895CF92DF92EF92FF920F93CF93C82F5E
S1130220F42E613009F053C000E020E040E00E9469
S1130230B8006F2D70E080E090E00E9436036B01FF
S11302407C010E947F0020E041E061E08C2F0E944D
S1130250B800C701B6010E947F0020E041E060E0E1
S11302608C2F0E94B800C701B6010E947F0021E0D4
S113027041E060E08C2F0E94B800C701B6010E94E3
S11302807F0021E040E060E08C2F0E94B800C701AD
S1130290B6010E947F0001E021E040E060E08C2F85
S11302A00E94B800C701B6010E947F0020E040E030
S11302B060E08C2F0E94B800C701B6010E947F0045
S11302C020E040E061E08C2F0E94B80055C061112D
S11302D053C001E020E040E00E94B8006F2D70E0C0
S11302E080E090E00E9436036B017C010E947F0055
S11302F021E040E060E08C2F0E94B800C701B60105
S11303000E947F0000E021E040E060E08C2F0E942A
S1130310B800C701B6010E947F0021E041E060E01F
S11303208C2F0E94B800C701B6010E947F0020E014
S113033041E060E08C2F0E94B800C701B6010E9422
S11303407F0020E041E061E08C2F0E94B800C701EB
S1130350B6010E947F0020E040E061E08C2F0E9403
S1130360B800C701B6010E947F0001E020E040E030
S113037061E08C2F0E94B800CF910F91FF90EF9015
S1130380DF90CF900895FF920F931F93CF93DF9345
S11303908C01F62EC0E0D0E006C04F2D61E082E073
S11303A00E9409012196C017D107B8F3DF91CF91BC
S11303B01F910F91FF900895FF920F931F93CF9376
S11303C0DF938C01F62EC0E0D0E006C04F2D60E034
S11303D082E00E9409012196C017D107B8F3DF918A
S11303E0CF911F910F91FF9008951F920F920FB616
S11303F00F9211248F939F934A9902C04A9B05C080
S1130400109285001092840008C08091840090911D
S1130410850090938B0180938A019F918F910F9017
S11304200FBE0F901F9018951F920F920FB60F9248
S113043011242F938F939F93EF93FF938091C00088
S11304402091C6008C71E0914701EF5FEF719091AC
S11304504601E91739F0E0934701F0E0E65BFE4F0F
S1130460208301C082E090914501892B809345014E
S1130470FF91EF919F918F912F910F900FBE0F904D
S11304801F9018951F920F920FB60F9211248F93FD
S11304909F93EF93FF93909149018091480198179E
S11304A069F0E0914801EF5FEF71E0934801F0E0FB
S11304B0E659FE4F80818093C60005C0E1ECF0E070
S11304C080818F7D8083FF91EF919F918F910F9019
S11304D00FBE0F901F9018951F920F920FB60F9298
S11304E011242F938F939F93EF93FF938091C800D0
S11304F02091CE008C71E0910201EF5FEF71909139
S11305000101E91739F0E0930201F0E0EB5FFE4FDF
S1130510208301C082E090910001892B8093000127
S1130520FF91EF919F918F912F910F900FBE0F909C
S11305301F9018951F920F920FB60F9211248F934C
S11305409F93EF93FF939091040180910301981777
S113055069F0E0910301EF5FEF71E0930301F0E0D4
S1130560EB5DFE4F80818093CE0005C0E9ECF0E0A6
S113057080818F7D8083FF91EF919F918F910F9068
S11305800FBE0F901F9018955058BB27AA270E94A2
S1130590DC020C94AE030E94A00338F00E94A7036F
S11305A020F039F49F3F19F426F40C949D030EF4C3
S11305B0E095E7FB0C949703E92F0E94BF0358F3DF
S11305C0BA17620773078407950720F079F4A6F534
S11305D00C94E1030EF4E0950B2EBA2FA02D0B0121
S11305E0B90190010C01CA01A0011124FF27591B74
S11305F099F0593F50F4503E68F11A16F040A22F7A
S1130600232F342F4427585FF3CF469537952795EA
S1130610A795F0405395C9F77EF41F16BA0B620BE9
S1130620730B840BBAF09150A1F0FF0FBB1F661F30
S1130630771F881FC2F70EC0BA0F621F731F841F73
S113064048F4879577956795B795F7959E3F08F099
S1130650B0CF9395880F08F09927EE0F979587955B
S113066008950E94730308F481E00895E89409C092
S113067097FB3EF490958095709561957F4F8F4FD1
S11306809F4F9923A9F0F92F96E9BB279395F695E7
S1130690879577956795B795F111F8CFFAF4BB0F65
S11306A011F460FF1BC06F5F7F4F8F4F9F4F16C0C9
S11306B0882311F096E911C0772321F09EE8872F53
S11306C0762F05C0662371F096E8862F70E060E00F
S11306D02AF09A95660F771F881FDAF7880F969588
S11306E0879597F90895990F0008550FAA0BE0E82C
S11306F0FEEF16161706E807F907C0F012161306E0
S1130700E407F50798F0621B730B840B950B39F41F
S11307100A2661F0232B242B252B21F408950A2685
S113072009F4A140A6958FEF811D811D089597F9C5
S11307309F6780E870E060E008959FEF80EC089583
S113074000240A94161617061806090608950024AC
S11307500A9412161306140605060895092E039426
S1130760000C11F4882352F0BB0F40F4BF2B11F49A
S113077060FF04C06F5F7F4F8F4F9F4F089557FDF9
S11307809058440F551F59F05F3F71F04795880FFB
S113079097FB991F61F09F3F79F087950895121692
S11307A013061406551FF2CF4695F1DF08C016163E
S11307B017061806991FF1CF8695710561050894EF
S11307C00895E894BB2766277727CB0197F9089506
S10707D0F894FFCFC7
S9030000FC
