:100000000C943E000C94CD010C945B000C945B00AE
:100010000C945B000C945B000C945B000C945B00F4
:100020000C945B000C945B000C945B000C945B00E4
:100030000C945B000C945B000C945B000C945B00D4
:100040000C945B000C945B000C945B000C945B00C4
:100050000C94EC010C941A020C945B000C945B0061
:100060000C945B000C945B000C945B000C945B00A4
:100070000C9444020C9472020C945B0011241FBE79
:10008000CFEFD8E0DEBFCDBF11E0A0E0B1E0ECE300
:10009000F5E002C005900D92A030B107D9F721E03C
:1000A000A0E0B1E001C01D92AC38B207E1F70E94B8
:1000B0007C000C949C020C9400000E947F0061E084
:1000C00086E990E00E949B012FEF83ED90E32150A1
:1000D00080409040E1F700C0000061E086E990E0D8
:1000E0000E94B4012FEF83ED90E3215080409040B7
:1000F000E1F700C00000E3CF78940E945D0087B173
:10010000806F87B987B18F6087B984B18F6084B9F8
:1001100008950F931F93811118C088B190E8699FCB
:10012000B001112490E4499FA001112490E2299F7D
:100130009001112490E1099F800111248F70682B98
:10014000462B242B202B28B932C08130C1F488B132
:1001500070E0660F771F660F771F660F771F50E0FE
:10016000440F551F440F551F30E0220F331F807F6F
:10017000862B842B822B282F202B28B918C0823065
:10018000B1F485B170E0660F771F660F771F660FB9
:10019000771F50E0440F551F440F551F30E0220FCA
:1001A000331F807F682B462B242B202B25B91F91D2
:1001B0000F9108950F93CF93C82F613009F05BC062
:1001C00000E020E040E00E9489008FE99FE0019775
:1001D000F1F700C0000020E041E061E08C2F0E94B8
:1001E00089008FE99FE00197F1F700C0000020E04F
:1001F00041E060E08C2F0E9489008FE99FE0019729
:10020000F1F700C0000021E041E060E08C2F0E9487
:1002100089008FE99FE00197F1F700C0000021E01D
:1002200040E060E08C2F0E9489008FE99FE00197F9
:10023000F1F700C0000001E021E040E060E08C2F19
:100240000E9489008FE99FE00197F1F700C000004C
:1002500020E040E060E08C2F0E9489008FE99FE061
:100260000197F1F700C0000020E040E061E08C2F32
:100270000E9489005DC061115BC001E020E040E0A8
:100280000E9489008FE99FE00197F1F700C000000C
:1002900021E040E060E08C2F0E9489008FE99FE020
:1002A0000197F1F700C0000000E021E040E060E0CD
:1002B0008C2F0E9489008FE99FE00197F1F700C021
:1002C000000021E041E060E08C2F0E9489008FE96E
:1002D0009FE00197F1F700C0000020E041E060E0FE
:1002E0008C2F0E9489008FE99FE00197F1F700C0F1
:1002F000000020E041E061E08C2F0E9489008FE93E
:100300009FE00197F1F700C0000020E040E061E0CD
:100310008C2F0E9489008FE99FE00197F1F700C0C0
:10032000000001E020E040E061E08C2F0E948900A5
:10033000CF910F910895FF920F931F93CF93DF9367
:100340008C01F62EC0E0D0E006C04F2D61E082E0C7
:100350000E94DA002196C017D107B8F3DF91CF9140
:100360001F910F91FF900895FF920F931F93CF93CA
:10037000DF938C01F62EC0E0D0E006C04F2D60E088
:1003800082E00E94DA002196C017D107B8F3DF910E
:10039000CF911F910F91FF9008951F920F920FB66A
:1003A0000F9211248F939F934A9902C04A9B05C0D4
:1003B000109285001092840008C080918400909172
:1003C000850090938B0180938A019F918F910F906C
:1003D0000FBE0F901F9018951F920F920FB60F929D
:1003E00011242F938F939F93EF93FF938091C000DD
:1003F0002091C6008C71E0914701EF5FEF71909101
:100400004601E91739F0E0934701F0E0E65BFE4F63
:10041000208301C082E090914501892B80934501A2
:10042000FF91EF919F918F912F910F900FBE0F90A1
:100430001F9018951F920F920FB60F9211248F9351
:100440009F93EF93FF9390914901809148019817F2
:1004500069F0E0914801EF5FEF71E0934801F0E04F
:10046000E659FE4F80818093C60005C0E1ECF0E0C4
:1004700080818F7D8083FF91EF919F918F910F906D
:100480000FBE0F901F9018951F920F920FB60F92EC
:1004900011242F938F939F93EF93FF938091C80024
:1004A0002091CE008C71E0910201EF5FEF7190918D
:1004B0000101E91739F0E0930201F0E0EB5FFE4F34
:1004C000208301C082E090910001892B809300017C
:1004D000FF91EF919F918F912F910F900FBE0F90F1
:1004E0001F9018951F920F920FB60F9211248F93A1
:1004F0009F93EF93FF9390910401809103019817CC
:1005000069F0E0910301EF5FEF71E0930301F0E028
:10051000EB5DFE4F80818093CE0005C0E9ECF0E0FA
:1005200080818F7D8083FF91EF919F918F910F90BC
:0C0530000FBE0F901F901895F894FFCF9D
:00000001FF
