:100000000C943E000C945B000C945B000C945B0021
:100010000C945B000C945B000C945B000C945B00F4
:100020000C945B000C945B000C945B000C945B00E4
:100030000C945B000C945B000C945B000C945B00D4
:100040000C945B000C945B000C945B000C945B00C4
:100050000C945B000C945B000C945B000C945B00B4
:100060000C945B000C945B000C945B000C945B00A4
:100070000C945B000C945B000C945B0011241FBE7D
:10008000CFEFD8E0DEBFCDBF11E0A0E0B1E0E0E50A
:10009000F1E002C005900D92AC33B107D9F721E031
:1000A000ACE3B1E001C01D92A234B207E1F70E94B7
:1000B0005D000C94A6000C94000080E091E00E948A
:1000C000760084E190E00E946C008EE190E00E9456
:1000D000710080E090E008958CE091E00E9476004D
:1000E000089583E291E00E94760008950F931F9394
:1000F000CF93DF93E0913E01F0913F01238121FFF7
:100100001BC08C01D0E0C0E0F80181918F016091AB
:100110003E0170913F01DB011896ED91FC9119971A
:10012000882331F00995892B79F3DFEFCFEFECCFFE
:100130008AE00995892B19F08FEF9FEF02C08D2F70
:100140009C2FDF91CF911F910F910895F894FFCFCD
:1001500048656C6C6F20776F726C640048656C6CDE
:100160006F20776F726C6420616761696E202D204B
:1001700043570048656C6C6F20776F726C64206128
:0C0180006761696E202D2043435700008A
:00000001FF
