:100000000C943E000C94DC000C945B000C945B00A0
:100010000C945B000C945B000C945B000C945B00F4
:100020000C945B000C945B000C945B000C945B00E4
:100030000C945B000C945B000C945B000C945B00D4
:100040000C945B000C945B000C945B000C945B00C4
:100050000C94FF000C942D010C945B000C945B003D
:100060000C945B000C945B000C945B000C945B00A4
:100070000C9494010C94C2010C945B0011241FBEDB
:10008000CFEFD8E0DEBFCDBF11E0A0E0B1E0EEE3FE
:10009000F6E002C005900D92A832B107D9F721E031
:1000A000A8E2B1E001C01D92A43BB207E1F70E94B3
:1000B0005D000C941D030C9400000E9487000E94B8
:1000C000FB000E948E0087E690E00E9457018AB1F3
:1000D00080688AB9789480E091E00E94870180E08E
:1000E00090E00E949D000A9724F48DE091E00E9428
:1000F000870181E291E00E9487012FEF89E698E174
:10010000215080409040E1F700C00000E8CF87B167
:10011000806F87B987B18F6087B9089581E08AB908
:100120008DB381608DBBE9E6F0E0808181608083E2
:1001300083E080938100789408951092B301109227
:10014000B201009751F48BB181608BB980E48A953C
:10015000F1F78BB18E7F8BB90BC0019749F48BB14E
:1001600082608BB980E48A95F1F78BB18D7F8BB972
:100170008091B2019091B301892BD1F36091B201CA
:100180007091B30180E090E00E9422022DEB37E3F2
:1001900046E856E30E94B00220E030E040E05FE332
:1001A0000E94B00220E03CEF45E057E40E94B0021C
:1001B0000E94EC01CB0108951F920F920FB60F928F
:1001C00011248F939F934A9902C04A9B05C01092B5
:1001D00085001092840008C0809184009091850071
:1001E0009093B3018093B2019F918F910F900FBEB6
:1001F0000F901F9018958AB180648AB908951F9254
:100200000F920FB60F9211242F938F939F93EF931A
:10021000FF938091C0002091C6008C71E0916F0126
:10022000EF5FEF7190916E01E91739F0E0936F0184
:10023000F0E0EE58FE4F208301C082E090916D0106
:10024000892B80936D01FF91EF919F918F912F9159
:100250000F900FBE0F901F9018951F920F920FB620
:100260000F9211248F939F93EF93FF9390917101BD
:1002700080917001981769F0E0917001EF5FEF7164
:10028000E0937001F0E0EE56FE4F80818093C6004F
:1002900005C0E1ECF0E080818F7D8083FF91EF91DC
:1002A0009F918F910F900FBE0F901F9018951092F5
:1002B00071011092700110926F0110926E01282F3F
:1002C000392F33231CF422E02093C00090789093C0
:1002D000C5008093C40088E98093C10086E08093C4
:1002E000C2000895209171012F5F2F7190917001CC
:1002F0002917E1F3E22FF0E0EE56FE4F80832093C2
:100300007101E1ECF0E08081806280830895CF93F9
:10031000DF93EC0103C021960E9472018881811154
:10032000FACFDF91CF9108951F920F920FB60F92DF
:1003300011242F938F939F93EF93FF938091C80085
:100340002091CE008C71E0912A01EF5FEF719091C6
:100350002901E91739F0E0932A01F0E0E35DFE4F4F
:10036000208301C082E090912801892B809328018D
:10037000FF91EF919F918F912F910F900FBE0F9052
:100380001F9018951F920F920FB60F9211248F9302
:100390009F93EF93FF9390912C0180912B019817DD
:1003A00069F0E0912B01EF5FEF71E0932B01F0E03A
:1003B000E35BFE4F80818093CE0005C0E9ECF0E066
:1003C00080818F7D8083FF91EF919F918F910F901E
:1003D0000FBE0F901F9018950E94F3016894B11101
:1003E0000C94AA0208950E948F0288F09F5798F0FB
:1003F000B92F9927B751B0F0E1F0660F771F881F2A
:10040000991F1AF0BA95C9F714C0B13091F00E9443
:10041000A902B1E008950C94A902672F782F8827CC
:10042000B85F39F0B93FCCF3869577956795B3956A
:10043000D9F73EF490958095709561957F4F8F4FD9
:100440009F4F0895E89409C097FB3EF490958095DE
:10045000709561957F4F8F4F9F4F9923A9F0F92F8A
:1004600096E9BB279395F695879577956795B79508
:10047000F111F8CFFAF4BB0F11F460FF1BC06F5FEE
:100480007F4F8F4F9F4F16C0882311F096E911C000
:10049000772321F09EE8872F762F05C0662371F021
:1004A00096E8862F70E060E02AF09A95660F771F35
:1004B000881FDAF7880F9695879597F9089597F929
:1004C0009F6780E870E060E008959FEF80EC0895FA
:1004D00000240A9416161706180609060895002423
:1004E0000A9412161306140605060895092E03949D
:1004F000000C11F4882352F0BB0F40F4BF2B11F411
:1005000060FF04C06F5F7F4F8F4F9F4F089557FD6F
:100510009058440F551F59F05F3F71F04795880F71
:1005200097FB991F61F09F3F79F087950895121608
:1005300013061406551FF2CF4695F1DF08C01616B4
:1005400017061806991FF1CF869571056105089465
:100550000895E894BB2766277727CB0197F908957C
:100560000E94C3020C9476020E94680238F00E9436
:100570006F0220F0952311F00C945F020C94650239
:1005800011240C94AA020E94870270F3959FC1F374
:10059000950F50E0551F629FF001729FBB27F00D31
:1005A000B11D639FAA27F00DB11DAA1F649F662786
:1005B000B00DA11D661F829F2227B00DA11D621FD5
:1005C000739FB00DA11D621F839FA00D611D221F8F
:1005D000749F3327A00D611D231F849F600D211D73
:1005E000822F762F6A2F11249F5750409AF0F1F0F6
:1005F00088234AF0EE0FFF1FBB1F661F771F881F5F
:1006000091505040A9F79E3F510580F00C945F0235
:100610000C94AA025F3FE4F3983ED4F38695779555
:100620006795B795F795E7959F5FC1F7FE2B880F04
:0E063000911D9695879597F90895F894FFCF40
:10063E0048656C6C6F20576F726C640A0044697366
:10064E0074616E6365206D656173757265640A0D04
:08065E0000776861740A0D00C9
:00000001FF
