:100000000C943E000C94AD000C9450000C945000E5
:100010000C9450000C9450000C9450000C94500020
:100020000C9450000C9450000C9450000C94500010
:100030000C9450000C9450000C9450000C94500000
:100040000C9450000C9450000C9450000C945000F0
:100050000C9450000C9450000C94DC000C94500054
:100060000C9450000C9450000C9450000C945000D0
:100070000C9450000C9450000C94500011241FBE9E
:10008000CFEFD8E0DEBFCDBF21E0A0E0B1E001C0FE
:100090001D92A438B207E1F70E9452000C943B0273
:1000A0000C9400000E94CF000E945F008AB180681B
:1000B0008AB9789480E090E00E946E00FFCF81E0E2
:1000C0008AB98DB381608DBBE9E6F0E08081816003
:1000D000808383E0809381007894089510920301D7
:1000E00010920201009751F48BB181608BB980E4CA
:1000F0008A95F1F78BB18E7F8BB90BC0019749F4CC
:100100008BB182608BB980E48A95F1F78BB18D7FDA
:100110008BB98091020190910301892BD1F36091F9
:1001200002017091030180E090E00E9440012DEBFC
:1001300037E346E856E30E94CE0120E030E040E09D
:100140005FE30E94CE0120E03CEF45E057E40E94CF
:10015000CE010E940A01CB0108951F920F920FB6A3
:100160000F9211248F939F938BB180588BB949992B
:1001700002C0489B05C0109285001092840008C000
:1001800080918400909185009093030180930201F7
:100190009F918F910F900FBE0F901F901895109206
:1001A000C50087E68093C40088E58093C10086E09F
:1001B0008093C200789408951F920F920FB60F9209
:1001C00011248F939F93EF93FF939091010180915E
:1001D0000001981799F0E0910101F0E0EC5FFE4F0B
:1001E00080818093C600809101018F5F809301011F
:1001F00080910101882314F4109201018BB1805881
:100200008BB9FF91EF919F918F910F900FBE0F903F
:100210001F9018950E9411016894B1110C94C801A7
:1002200008950E94AD0188F09F5798F0B92F992743
:10023000B751B0F0E1F0660F771F881F991F1AF0D1
:10024000BA95C9F714C0B13091F00E94C701B1E06E
:1002500008950C94C701672F782F8827B85F39F06D
:10026000B93FCCF3869577956795B395D9F73EF46A
:1002700090958095709561957F4F8F4F9F4F089512
:10028000E89409C097FB3EF4909580957095619530
:100290007F4F8F4F9F4F9923A9F0F92F96E9BB27E6
:1002A0009395F695879577956795B795F111F8CF62
:1002B000FAF4BB0F11F460FF1BC06F5F7F4F8F4FCD
:1002C0009F4F16C0882311F096E911C0772321F0C3
:1002D0009EE8872F762F05C0662371F096E8862F5B
:1002E00070E060E02AF09A95660F771F881FDAF7B2
:1002F000880F9695879597F9089597F99F6780E8F5
:1003000070E060E008959FEF80EC089500240A9467
:100310001616170618060906089500240A941216E0
:100320001306140605060895092E0394000C11F413
:10033000882352F0BB0F40F4BF2B11F460FF04C0C0
:100340006F5F7F4F8F4F9F4F089557FD9058440F19
:10035000551F59F05F3F71F04795880F97FB991F24
:1003600061F09F3F79F087950895121613061406E1
:10037000551FF2CF4695F1DF08C01616170618066E
:10038000991FF1CF86957105610508940895E89449
:10039000BB2766277727CB0197F908950E94E101D3
:1003A0000C9494010E94860138F00E948D0120F087
:1003B000952311F00C947D010C94830111240C946D
:1003C000C8010E94A50170F3959FC1F3950F50E0FD
:1003D000551F629FF001729FBB27F00DB11D639FF7
:1003E000AA27F00DB11DAA1F649F6627B00DA11D9D
:1003F000661F829F2227B00DA11D621F739FB00D43
:10040000A11D621F839FA00D611D221F749F3327B2
:10041000A00D611D231F849F600D211D822F762F4B
:100420006A2F11249F5750409AF0F1F088234AF028
:10043000EE0FFF1FBB1F661F771F881F9150504094
:10044000A9F79E3F510580F00C947D010C94C801E2
:100450005F3FE4F3983ED4F3869577956795B7951B
:10046000F795E7959F5FC1F7FE2B880F911D969535
:0A047000879597F90895F894FFCFDF
:00000001FF
