S01600006D657472323830302D726F626F742E7372656339
S11300000C943E000C9448000C9448000C94480056
S11300100C9448000C9448000C9448000C9448003C
S11300200C9448000C9448000C9448000C9448002C
S11300300C9448000C9448000C9448000C9448001C
S11300400C9448000C9448000C9448000C9448000C
S11300500C9448000C9448000C9448000C944800FC
S11300600C9448000C9448000C9448000C944800EC
S11300700C9448000C9448000C94480011241FBEB2
S1130080CFEFD8E0DEBFCDBF0E944A000C949E01A2
S11300900C9400000E94650080E88AB98BB18058F6
S11300A08BB980E092E00E946C010E945C012FEF0A
S11300B083ED90E3215080409040E1F700C00000C0
S11300C080E092E00E948501E9CF80EF87B98FE05C
S11300D087B908950F931F93811115C080E8689F15
S11300E0B001112480E4489FA001112480E2289FDC
S11300F09001112480E1089F80011124462B242BB8
S1130100202B28B915C0813099F470E0660F771F51
S1130110660F771F660F771F50E0440F551F440F7B
S1130120551F30E0220F331F462B242B202B28B9D8
S11301301F910F9108950F93CF93C82F613009F049
S11301405BC000E020E040E00E946A008FE39FE192
S11301500197F1F700C0000020E041E061E08C2F3E
S11301600E946A008FE39FE10197F1F700C000004D
S113017020E041E060E08C2F0E946A008FE39FE161
S11301800197F1F700C0000021E041E060E08C2F0E
S11301900E946A008FE39FE10197F1F700C000001D
S11301A021E040E060E08C2F0E946A008FE39FE131
S11301B00197F1F700C0000001E021E040E060E0B9
S11301C08C2F0E946A008FE39FE10197F1F700C032
S11301D0000020E040E060E08C2F0E946A008FE382
S11301E09FE10197F1F700C0000020E040E061E0EA
S11301F08C2F0E946A005DC061115BC001E020E0A9
S113020040E00E946A008FE39FE10197F1F700C08C
S1130210000021E040E060E08C2F0E946A008FE340
S11302209FE10197F1F700C0000000E021E040E009
S113023060E08C2F0E946A008FE39FE10197F1F741
S113024000C0000021E041E060E08C2F0E946A00C1
S11302508FE39FE10197F1F700C0000020E041E047
S113026060E08C2F0E946A008FE39FE10197F1F711
S113027000C0000020E041E061E08C2F0E946A0091
S11302808FE39FE10197F1F700C0000020E040E018
S113029061E08C2F0E946A008FE39FE10197F1F7E0
S11302A000C0000001E020E040E061E08C2F0E94EB
S11302B06A00CF910F9108950F9300E020E040E091
S11302C060E080E00E946A0020E040E060E081E0BD
S11302D00E946A000F9108950F931F93CF93DF93A9
S11302E08C01C0E0D0E009C061E080E00E949B0086
S11302F060E081E00E949B002196C017D107A0F323
S1130300DF91CF911F910F9108950F931F93CF9376
S1130310DF938C01C0E0D0E009C060E080E00E947F
S11303209B0061E081E00E949B002196C017D107E9
S1130330A0F3DF91CF911F910F910895F894FFCF0F
S9030000FC
